:100000000C949D010C94C5010C94C5010C94C50180
:100010000C94C5010C94C5010C94C5010C94C50148
:100020000C94C5010C94C5010C94C5010C94C50138
:100030000C94C5010C94C5010C94C5010C94C50128
:100040000C94F00F0C94C5010C942B050C94050531
:100050000C94C5010C94C5010C94C5010C94C50108
:100060000C94C5010C94C5010C94C5010C94C501F8
:100070000C94D3040C94AD040C94C5010C94C501EC
:100080000C94C5010C94C5010C94C5010C94C501D8
:100090000C94C5010C94C5010C94C5010C94C501C8
:1000A0000C94C5010C94C5010C94C5010C94C501B8
:1000B0000C94C5014F1711130414A4140B15341517
:1000C00027165116A2169217BD17C80ACB0ABE0AE8
:1000D000C20AEC0AEC0ACF0AD30AD90ADD0AEC0AF2
:1000E000E30AE70A520E570E5C0E660EAD0EAD0E19
:1000F000700E780E800E8A0EAD0E940EA30E004088
:100100007A10F35A00A0724E18090010A5D4E80026
:1001100000E87648170000E40B54020000CA9A3B3E
:10012000000000E1F50500008096980000004042C4
:100130000F000000A0860100000010270000000052
:10014000E803000000006400000000000A00000056
:1001500000000100000000002C76D888DC674F0802
:1001600023DFC1DFAE59E1B1B796E5E3E453C63A08
:10017000E651997696E8E6C28426EB898C9B62ED7F
:10018000407C6FFCEFBC9C9F40F2BAA56FA5F49039
:10019000055A2AF75C936B6CF9676DC11BFCE0E4B0
:1001A0000D47FEF520E6B500D0ED902E0300943506
:1001B00077050080841E080000204E0A000000C859
:1001C0000C333333330F986E12831141EF8D2114AA
:1001D000893BE65516CFFEE6DB18D1844B381BF77A
:1001E0007C1D901DA4BBE424203284725E22810019
:1001F000C9F124ECA1E53D270A0053797374656DBC
:1002000020696E697469616C697A6564202D20418A
:100210006C676F627261696E20312E36005B5253DB
:10022000535D005B5253535D005B5253535D005B63
:100230005253535D005B5253535D005B5253535D09
:10024000005B5252585D0044415441203A00444101
:1002500054412054494D452D4F55542D434C454153
:100260005220425546005B5253535D0053797374DC
:10027000656D2073687574646F776E005B525353BD
:100280005D005B5254585D005B5254585D005B52F8
:1002900054585D005B5254585D005B5254585D00E9
:1002A0005B5254585D005B5254585D005B52545889
:1002B0005D00456E6420706C6179005B5253535D44
:1002C0000000000000240027002A002D000000008C
:1002D00000250028002B002E00000000002300262F
:1002E0000029002C00040404040404040402020293
:1002F00002020203030303030305050505010204CB
:100300000810204080010204081020010204081097
:100310002004080102090C0D08000201000003047A
:10032000070000000000000000000000005B5253C6
:10033000535D00430000FC1BF41B11241FBECFEFD4
:10034000D8E0DEBFCDBF11E0A0E0B1E0E2E0FAE42A
:1003500002C005900D92AA3FB107D9F726E0AAEF97
:10036000B1E001C01D92A13DB207E1F711E0CCE977
:10037000D1E004C02197FE010E94D722CB39D107DA
:10038000C9F70E947F100C94F4240C940000089587
:10039000CF92DF92EF92FF920F931F93CF93DF9351
:1003A0006C017A018B01C0E0D0E0CE15DF0581F051
:1003B000D8016D918D01D601ED91FC910190F081F4
:1003C000E02DC6010995892B11F02196EECF7E0113
:1003D000C701DF91CF911F910F91FF90EF90DF90B8
:1003E000CF90089580E090E00895FC01538D448DF6
:1003F000252F30E0842F90E0821B930B541710F0D0
:10040000CF96089501970895FC01918D828D9817DC
:1004100061F0828DDF01A80FB11D5D968C91928DE8
:100420009F5F9F73928F90E008958FEF9FEF0895E5
:10043000FC01918D828D981731F0828DE80FF11DAE
:10044000858D90E008958FEF9FEF0895FC01918DC9
:10045000228D892F90E0805C9F4F821B91098F73C2
:10046000992708958BE295E00E94260221E0892BCE
:1004700009F420E0822F089588EC95E00E9426027E
:1004800021E0892B09F420E0822F0895FC01848D5E
:10049000DF01A80FB11DA35ABF4F2C91848D90E0AE
:1004A00001968F739927848FA689B7892C93A08989
:1004B000B1898C91837080648C93938D848D981313
:1004C00006C00288F389E02D80818F7D80830895A6
:1004D000EF92FF920F931F93CF93DF93EC0181E094
:1004E000888F9B8D8C8D981305C0E889F989808150
:1004F00085FD26C0F62E0B8D10E00F5F1F4F0F738A
:100500001127E02E8C8DE8120CC00FB607FCFACF35
:10051000E889F989808185FFF5CFCE010E944602E6
:10052000F1CF8B8DFE01E80FF11DE35AFF4FF082F2
:100530009FB7F8940B8FEA89FB89808180620AC09B
:100540009FB7F894EE89FF896083E889F9898081F3
:100550008370806480839FBF81E090E0DF91CF91C2
:100560001F910F91FF90EF900895CF93DF93EC01CF
:10057000888D8823C9F0EA89FB89808185FD05C0C3
:10058000A889B9898C9186FD0FC00FB607FCF5CFFD
:10059000808185FFF2CFA889B9898C9185FFEDCF45
:1005A000CE010E944602E7CFDF91CF91089580E00F
:1005B00090E0892B21F00E943C02811109C080E06B
:1005C00090E0892B51F00E943202811104C00895FD
:1005D0000E940000F4CF0C94000008950E94DF24D4
:1005E0000F931F93CF93DF93EC018881998100973C
:1005F00029F02A813B812617370788F48B016F5F2A
:100600007F4F0E941924009761F0998388831B8390
:100610000A832C813D81232B11F4FC01108281E09F
:1006200001C080E0DF91CF911F910F910895CF928B
:10063000DF92EF92FF920F931F93CF93DF93CDB78B
:10064000DEB729970FB6F894DEBF0FBECDBF8C0181
:100650000E94B60ED8011E96CD90DD90ED90FC90D4
:100660005197DC01CB018C199D09AE09BF098C3271
:100670009140A105B10560F3F894D80114968D91CD
:100680009C9115979A8389831896ED91FC911997FF
:100690007F01BFEFEB1AFB0A80818F83F801908105
:1006A0000288F389E02DD80154968C91992309F49E
:1006B00030C09081982B9887908180958923898775
:1006C00089858B8388E08C83588569854F813C813F
:1006D0002B8189819A81D701508347FD252F3A9537
:1006E0002083262F39F0441F00C0000060830000E3
:1006F00000C0F2CF38E04D9160830000019761F7B0
:10070000D8015396FC93EE9352974F833C832B83EF
:100710003AC09081982B988790818095892389870A
:1007200089858D8388E08E83588569854F813E81D8
:100730002D8189819A81D701508347FD252F00C0E3
:1007400000C0208300C000C000C000C000C06083A3
:100750000000262F3A9541F0441F000000C000C061
:1007600000C000C000C0E8CF38E04D9100C06083F9
:1007700000C0019709F7D8015396FC93EE93529766
:100780004F833E832D839A83898378940E94B60E8B
:10079000F80166877787808B918B29960FB6F8943E
:1007A000DEBF0FBECDBFDF91CF911F910F91FF90A4
:1007B000EF90DF90CF900895EF92FF920F931F93E9
:1007C000CF93DF936115710511F480E01CC04115D2
:1007D0005105C1F07B01EC018C819D818A01080FDC
:1007E000191FB801CE010E94F002882371F32881FD
:1007F00039818C819D81B701820F931F0E94ED2466
:100800001D830C8381E0DF91CF911F910F91FF90A9
:10081000EF900895CF93DF93EC0188819981009741
:1008200011F00E949023198218821D821C821B8263
:100830001A82DF91CF910895CF93DF93EC01611578
:10084000710561F0FB0101900020E9F73197AF01DC
:10085000461B570B0E94DC03811103C0CE010E948E
:100860000A04CE01DF91CF910895EF92FF920F938A
:100870001F93CF93DF93EC018B016115710551F04C
:10088000CB010E947B1D7C01BC01CE010E94F002C5
:10089000811104C0CE010E940A0407C0FD82EC82CF
:1008A000B801888199810E94741DCE01DF91CF919A
:1008B0001F910F91FF90EF900895EF92FF920F9389
:1008C0001F93CF93DF93EC017B018A01BA010E9451
:1008D000F002811104C0CE010E940A0407C01D83EA
:1008E0000C83B701888199810E94ED24CE01DF91AC
:1008F000CF911F910F91FF90EF900895FB01DC01C4
:1009000011961C921E9213961C921E921297159687
:100910001C921E9214978617970749F06081718187
:100920006115710521F0448155810C945D04089591
:10093000FC011182108213821282158214826115C9
:10094000710551F0FB0101900020E9F73197AF01EB
:10095000461B570B0C945D0408951F920F920FB61F
:100960000F9211242F933F934F935F936F937F9335
:100970008F939F93AF93BF93EF93FF938BE295E099
:100980000E944602FF91EF91BF91AF919F918F918D
:100990007F916F915F914F913F912F910F900FBE7B
:1009A0000F901F9018951F920F920FB60F9211245F
:1009B0002F938F939F93EF93FF93E0913B05F091DB
:1009C0003C058081E0914105F091420582FD12C015
:1009D0009081809144058F5F8F7320914505821728
:1009E00051F0E0914405F0E0E55DFA4F958F80937A
:1009F000440501C08081FF91EF919F918F912F91CC
:100A00000F900FBE0F901F9018951F920F920FB668
:100A10000F9211242F933F934F935F936F937F9384
:100A20008F939F93AF93BF93EF93FF9388EC95E0E1
:100A30000E944602FF91EF91BF91AF919F918F91DC
:100A40007F916F915F914F913F912F910F900FBECA
:100A50000F901F9018951F920F920FB60F921124AE
:100A60002F938F939F93EF93FF93E091D805F0918D
:100A7000D9058081E091DE05F091DF0582FD12C08D
:100A800090818091E1058F5F8F732091E20582173D
:100A900051F0E091E105F0E0E853FA4F958F809333
:100AA000E10501C08081FF91EF919F918F912F917E
:100AB0000F900FBE0F901F901895CF93DF93EC010E
:100AC00088859985009711F00E9490238E8187FD7B
:100AD00005C060E0DF91CF910C94EF0DDF91CF91D5
:100AE00008950F931F93CF938C01C62F8DE591E04E
:100AF0000E942A0CC8010E942A0C60E170E08C2F31
:100B0000CF911F910F910C94360DEEE6F2E0119209
:100B100082E0EC37F807D9F710927C0210927D0240
:100B200010927E0210927F02109280020895EF923E
:100B3000FF920F931F93CF93DF938C018FEF90E081
:100B40000E945A0B8CEA92E00E94490C8FEF90E0D1
:100B50000E945B0D8FEF90E00E945A0B86EA92E0B4
:100B60000E94490C8FEF90E00E945B0D8091690616
:100B700090916A069093720680937106E8010E5F69
:100B80001F4F7E0168818BE295E00E94680280EA37
:100B900092E00E94490C6AE070E089910E94360D53
:100BA000F70180810E94640CC017D10751F70E94A1
:100BB000B80CD82FC92F682F8BE295E00E946802ED
:100BC0008AE992E00E94490C6AE070E08D2F0E9451
:100BD000360D6C2F8BE295E00E94680284E992E06A
:100BE0000E94490C6AE070E08C2F0E94360D8EEF57
:100BF00090E00E945A0B8EE892E00E94490C8EEF22
:100C000090E00E945B0D8DEF90E00E945A0B88E807
:100C100092E00E94490C8DEF90E00E945B0D8CEFFA
:100C200090E00E945A0B82E892E00E94490C8CEFFF
:100C300090E00E945B0D80911905882361F060E5CA
:100C400070E080E090E0DF91CF911F910F91FF90D5
:100C5000EF900C94DB0EDF91CF911F910F91FF90DD
:100C6000EF900895CF93DF9300D0CDB7DEB781ED3D
:100C700089831A82CE0101960E9497058BEB92E040
:100C80000E94490C82EB92E00E944F0D0F900F9052
:100C9000DF91CF910895CF93DF9300D0CDB7DEB72A
:100CA00090918102911106C089836A83CE010196D9
:100CB0000E9497050F900F90DF91CF9108954F926A
:100CC0005F926F927F928F929F92AF92BF92CF92DC
:100CD000DF92EF92FF920F931F93CF93DF935C010C
:100CE000162F842E622E262F30E0AFEFB0E00E9448
:100CF0009A2123E030E040E050E00E940F21CCEF49
:100D0000D1E0123021F0922E222329F002C09AEA7B
:100D1000992E782C01C0712C0CEF11E0E12CF12CF4
:100D200083E0C82ED12C55245394C6010E2C02C04A
:100D3000880F991F0A94E2F78A219B210E2C02C08A
:100D4000959587950A94E2F7482E82508230B0F448
:100D5000F8016581662329F0681519F080ED0E947D
:100D60004B06992021F081E0F2E04F1201C080E0B3
:100D7000F80175826682828393825482F2E0EF0EDC
:100D8000F11C095F1F4F86E0E816F10471F68C81B3
:100D9000882359F01B816A8188810E94C00D612FD0
:100DA00070E089810E942B0E1C82279692E0C1314F
:100DB000D90769F7DF91CF911F910F91FF90EF90C5
:100DC000DF90CF90BF90AF909F908F907F906F906B
:100DD0005F904F900895BC0185E0869FF001879F4A
:100DE000F00D1124EF5DFD4FE1812E2F30E0C901A0
:100DF00001962091160530E046E1E49FF0011124B0
:100E0000EE57FD4F821793075CF44789442329F07E
:100E1000468950E06417750729F001967696F2CF5F
:100E20008FEF9FEF0895CF93DF93CCEFD1E01B823C
:100E30001A821D821C8260E088810E94C00D60E0E1
:100E400070E089810E942B0E1C82279682E0C131BE
:100E5000D80769F7DF91CF9108951F93CF93DF9360
:100E6000C3E7D6E011E08A819B81892B31F040E015
:100E700050E0BA01CE010E94D90B88859985892B53
:100E800019F0CE010E941703188F1D8A1E8A1F8A2F
:100E9000198E1A8E6C9686E0CB3AD80721F7DF912F
:100EA000CF911F9108950E942D070E941307E1E141
:100EB000F2E01192119282E0E132F807D1F78091CD
:100EC000080181110E945F0B1092C30680E00E940E
:100ED000210F81E00E94210F109217051092190531
:100EE0001092810208950F931F93CF93DF93962F53
:100EF000082F10E026E1829FF0011124EE57FD4FEC
:100F0000C081662321F0682F892F0E944B0686E15D
:100F1000809FF001819FF00D1124EE57FD4F8FEF60
:100F20009FEFDC0182879387A487B587D0E0CE014D
:100F30000E94EB068F3F2FEF920709F03EC085E03D
:100F40008C9FF0018D9FF00D1124EF5DFD4F1082FD
:100F50001182E1E2F2E08CE692E02081211136C0BC
:100F600035968E179F07C9F781E09091FF01911187
:100F700080E090910602911180E090910D02911114
:100F800080E090918B06992359F09091A7069923C0
:100F900049F0882339F00E9432060E9453070AC0A4
:100FA00080E0F3CF1092C30680E00E94210F81E021
:100FB000809317051092190509C095E09C9FF001D8
:100FC0009D9FF00D1124EF5DFD4F8183DF91CF9147
:100FD0001F910F910895FF920F931F93CF93DF936B
:100FE000CDB7DEB762970FB6F894DEBF0FBECDBFA8
:100FF000082FF62E80910801882381F08091070147
:10100000882361F0861751F0011104C06FEC0E9433
:10101000730706C060ED0E94730705C0011103C08D
:101020000E945F0B82C010E001501109B801CE018F
:1010300007960E948E0B69ED71E0CE0101960E9429
:101040009804BE01695F7F4FCE0101960E94C60BD6
:101050006CED71E00E941C04BC01CE010D960E9453
:101060007E04CE0101960E942E0BCE0107960E94AF
:101070002E0B80910801882331F1B801CE01019631
:101080000E948E0B8D859E85009739F069817A814B
:1010900061157105D9F50E94902389819A819E87F7
:1010A0008D878B819C81988B8F878D819E819A8B78
:1010B000898B1A8219821C821B821E821D82CE019C
:1010C00001960E942E0B0E94150F609300017093F1
:1010D00001018093020190930301BE01635F7F4F82
:1010E000CE0101960E947E04CE0101960E94ED0A77
:1010F000CE0101960E942E0B81E080930801F092B0
:101100000701CE010D960E942E0B0FC04F85588906
:101110002D813E814217530708F4BDCF0E94ED2474
:101120008D819E819A8B898BC8CF62960FB6F89479
:10113000DEBF0FBECDBFDF91CF911F910F91FF900A
:101140000895CF930E942D070E941307E1E1F2E07A
:1011500081E292E0119211928E179F07D9F7809148
:10116000080181110E945F0B80E090E025E0289F3C
:10117000F001299FF00D1124EF5DFD4FDF01322FAB
:101180001D923A95E9F701968F30910581F71092FB
:101190006D0210926C02C1E0C093C30681E00E9410
:1011A000210FC09319051092180510921705C093CE
:1011B0002102CF910895CF92DF92EF92FF920F9389
:1011C0001F93CF93DF93C82FD0E0C650DE4F288106
:1011D00030E0F901E350FD4F6491F901EB51FD4F0F
:1011E000E491F0E0EE0FFF1FE752FD4F85919491DF
:1011F00000EA1FE020E030E0462F0E943A1061151F
:10120000710581059105E1F0DC01CB010196A11D7D
:10121000B11DBC01CD019F7061157105810591055E
:1012200079F00E94F01F20E030E04AEF54E40E9481
:10123000162220E030E048EC52E40E9451200DC01C
:1012400088810E94970D892B21F460E070E0CB012A
:1012500004C060E070E088EC92E420E030E040E21E
:1012600051E40E9416226B017C0120E030E0A901CC
:101270000E94BE2220E030E040E05FE387FD05C031
:10128000C701B6010E94AA2104C0C701B6010E948D
:10129000A9210E948822862FDF91CF911F910F9163
:1012A000FF90EF90DF90CF9008952F923F924F9252
:1012B0005F926F927F928F929F92AF92BF92CF92E6
:1012C000DF92EF92FF920F931F93CF93DF93882EBD
:1012D000D62ED42FC22FB02E3C2C00FF21C00E944E
:1012E0001D1D23E030E040E050E00E940F21DC01B2
:1012F000CB010196A11DB11D8230910549F08330CB
:10130000910549F0019761F4F12C00E01FEF0BC04B
:10131000F12C0FEF03C0FF24FA9400E010E003C0AB
:10132000FC2E0D2F1D2DA11062C0B5FE1FC080E048
:101330000E94DB08282F30E0AFEFB0E00E949A2136
:101340002AE030E040E050E00E940F21DA01C901BC
:101350008D0D911DA11DB11D8F3F9105A105B105F9
:1013600009F01CF41D2D120F01C01FEFB6FE1FC0A7
:1013700080E00E94DB08282F30E0AFEFB0E00E9451
:101380009A212AE030E040E050E00E940F21DA018B
:10139000C9018D0F911DA11DB11D8F3F9105A105A3
:1013A000B10509F01CF40D2F020F01C00FEFB7FEBD
:1013B00023C080E00E94DB08282F30E0AFEFB0E0D0
:1013C0000E949A212AE030E040E050E00E940F2184
:1013D000DA01C9018C0F911DA11DB11D8F3F91052F
:1013E000A105B10509F054F4FC2EF20E05C0F12C54
:1013F00000E010E0B12C05C0BE2C03C0BE2CFF24C1
:10140000FA94C3E7D6E06E01412C512C20E4622E01
:10141000712C912C22242394C301042C02C0880F28
:10142000991F0A94E2F788219921892B89F0F60106
:10143000618D662329F0E61619F080ED0E944B06B7
:10144000F601A08E158B068BF78AB18E328E238E15
:10145000FFEF4F1A5F0A8CE1C80ED11CE2E04E1676
:101460005104D1F68B8D8823D9F08A819B81892BF9
:1014700079F08D894E8950E060E070E0762F652F1D
:10148000542F4427682B8F89482BCE010E94D90BFB
:1014900088859985892B19F0CE010E9417031B8E30
:1014A0006C96F6E0CB3ADF07E9F6DF91CF911F911A
:1014B0000F91FF90EF90DF90CF90BF90AF909F90F3
:1014C0008F907F906F905F904F903F902F900895F6
:1014D000DF92EF92FF920F931F93CF93DF9363FD01
:1014E00037C0D42EC82FD0E0E12CF12C062F10E00D
:1014F000C7010496980102C0359527958A95E2F7B1
:1015000020FF05C08E2D0E94DB08C80FD11D3FEFC4
:10151000E31AF30A84E0E816F10451F7E1E1F2E09E
:1015200080E090E04D2D50E09A01082E02C03595E4
:1015300027950A94E2F720FF04C020813181C20F71
:10154000D31F019632968830910571F780E003C071
:1015500081E0C0E0D0E0BE01DF91CF911F910F91FB
:10156000FF90EF90DF90089590E0FC013197ED300F
:10157000F10590F5EB59FF4F0C94D7228091800034
:101580008F7703C0809180008F7D809380000895C5
:1015900084B58F7702C084B58F7D84BD0895809116
:1015A000B0008F7703C08091B0008F7D8093B00032
:1015B0000895809190008F7703C0809190008F7D77
:1015C0008093900008958091A0008F7703C0809150
:1015D000A0008F7D8093A0000895CF93DF93DC015E
:1015E00090E067E971E0C7E9D1E0292F30E0149677
:1015F0004D915C9115972417350768F54D915C91D5
:1016000011974115510529F0FA01E20FF31F4081AE
:1016100001C040E07098FB013197F1F720E030E025
:1016200050E0FA01022E02C0F595E7950A94E2F720
:10163000E0FF02C0709A01C07098FB013197F1F78A
:101640002F5F3F4F2830310561F7709AFE013197C7
:10165000F1F79F5FCACFDF91CF910895FC018081A0
:1016600091810C949023FC01A089B18982E08C9334
:10167000A485B5851C92A685B78580E18C93108ED4
:10168000A489B58986E08C93A289B3898C91806105
:101690008C93A289B3898C9188608C93A289B38939
:1016A0008C9180688C930288F389E02D80818F7DF6
:1016B00080830895682F8BE295E00C946802CF93A5
:1016C000DF9300D000D000D0CDB7DEB71A821982E8
:1016D0001C821B821E821D8263E373E0CE01019691
:1016E0000E943504CE0101960E94ED0ACE010196BA
:1016F0000E942E0BE0E0F1E0178210868FEF9FEF43
:10170000DC0180839183A283B38326960FB6F8947D
:10171000DEBF0FBECDBFDF91CF910895EF92FF9254
:101720000F931F93CF93DF93CDB7DEB762970FB6BA
:10173000F894DEBF0FBECDBF8C01CB01F801118242
:10174000108213821282158214824AE09E012F5F5A
:101750003F4F7901B9010E94841DF70101900020DB
:10176000E9F73197AF014E195F09B701C8010E942F
:101770005D0462960FB6F894DEBF0FBECDBFDF9159
:10178000CF911F910F91FF90EF900895CF93DF932A
:10179000EC01FB0144815581608171810E94DC0371
:1017A000811103C0CE010E940A04CE01DF91CF91C6
:1017B0000895CF92DF92EF92FF921F93CF93DF9322
:1017C000FC016B01EE24FF241C2DBB27A72F962FB5
:1017D000852FD82FC42F2781222361F0C29E60015C
:1017E00011241D2D289FC0011124D92F249FC00131
:1017F0001124C92F3585A285808591853A1799F0E6
:10180000472F552766277727DC01A30FB11D222319
:1018100049F030E0249F7001259FF00C349FF00CBC
:1018200011244F2D4C932285DC01A20FB11D1C9376
:101830002385DC01A20FB11DDC932485FC01E20F9E
:10184000F11DC083DF91CF911F91FF90EF90DF904A
:10185000CF900895009769F0FC0101900020E9F70E
:101860003197AF01481B590BBC0188EC95E00C94F3
:10187000C80180E090E008958BED91E00C942A0C73
:10188000FC01448155816081718188EC95E00C9464
:10189000C8010F931F93CF93DF938C01C0E0D0E07A
:1018A000F801EC0FFD1F6491662341F088EC95E090
:1018B0000E946802892B11F02196F2CFCE01DF91B0
:1018C000CF911F910F910895CF92DF92EF92FF92E7
:1018D00090916F069923E9F027E030E040E050E076
:1018E000BA01E1E0F0E080FF0FC06F01022E02C0FC
:1018F000CC0CDD1C0A94E2F70D2C000CEE08FF085E
:101900004C295D296E297F2986952150310958F788
:10191000842F2091710630917206A0916506B091D6
:101920006606E0906D06F0906E0648E050E060E8D4
:1019300070E090E0FD01E223F323220F331F6C01DE
:10194000C622D722CD2811F0EA27FB27EF2B11F072
:101950002E253F25759567954150510959F73093CC
:10196000720620937106FF90EF90DF90CF9008955C
:10197000CF92DF92EF92FF9280917006882361F1FF
:10198000209171068FE190E040E050E0BA01E1E083
:10199000F0E020FF0FC06F01082E02C0CC0CDD1C50
:1019A0000A94E2F70D2C000CEE08FF084C295D2983
:1019B0006E297F292695019760F780916B0690919B
:1019C0006C06842720916706309168068223932352
:1019D00090937206809371068091710690917206C1
:1019E000FF90EF90DF90CF9008958F929F92AF92EB
:1019F000BF920F931F93CF93DF93CDB7DEB7A1971D
:101A00000FB6F894DEBF0FBECDBF19A2423008F466
:101A10004AE08E010F5D1F4F842E912CA12CB12C1A
:101A2000A50194010E947821E62FB901CA01015055
:101A30001109EA3014F4E05D01C0E95CD801EC93CF
:101A4000232B242B252B61F7C8010E942A0CA19679
:101A50000FB6F894DEBF0FBECDBFDF91CF911F91BF
:101A60000F91BF90AF909F908F900895CF93DF9389
:101A7000AB01682F4115510529F488EC95E00E94CF
:101A8000680205C070E080E090E00E94F50CEC0177
:101A90000E943C0C8C0F9D1FDF91CF910895CF9336
:101AA000DF930E94490CEC010E943C0C8C0F9D1F9F
:101AB000DF91CF910895CF92DF92EF92FF92CF9373
:101AC000DF936C01990FEE08FF08F7FE13C06DE27B
:101AD00088EC95E00E946802EC0166277727CB012D
:101AE0006C197D098E099F094AE00E94F50CC80F08
:101AF000D91F06C04AE0C701B6010E94F50CEC01EF
:101B00000E943C0C8C0F9D1FDF91CF91FF90EF90B6
:101B1000DF90CF900895CF93DF930E942A0CEC01C1
:101B20000E943C0C8C0F9D1FDF91CF910895CF93A5
:101B3000DF93282F30E0F901EB5EFC4F8491F9012F
:101B4000E350FD4FD491F901EB51FD4FC491CC23EB
:101B500091F081110E94B40AEC2FF0E0EE0FFF1F0C
:101B6000E752FD4FA591B491EC91ED2381E090E017
:101B700021F480E002C080E090E0DF91CF910895F1
:101B80001F93CF93DF93282F30E0F901EB5EFC4FDA
:101B90008491F901E350FD4FD491F901EB51FD4FD0
:101BA000C491CC23C1F0162F81110E94B40AEC2FEE
:101BB000F0E0EE0FFF1FE353FD4FA591B4919FB7E7
:101BC000F894111104C08C91D095D82302C0EC91E7
:101BD000DE2BDC939FBFDF91CF911F910895CF93B0
:101BE000DF9390E0FC01E350FD4F2491FC01EB51A9
:101BF000FD4F8491882361F190E0880F991FFC01CB
:101C0000EF53FD4FC591D491FC01E353FD4FA591D6
:101C1000B491611109C09FB7F894888120958223FF
:101C20008883EC912E230BC0623061F49FB7F89447
:101C30008881322F309583238883EC912E2B2C932F
:101C40009FBF06C08FB7F894E8812E2B28838FBFE3
:101C5000DF91CF9108951F93CF93DF93182FEB015E
:101C600061E00E94EF0D209711F460E004C0CF3FC7
:101C7000D10539F461E0812FDF91CF911F910C9450
:101C8000C00DE12FF0E0EB5EFC4FE4918E2F90E071
:101C9000FC013197ED30F10508F05FC0EE58FF4FC1
:101CA0000C94D72284B5806884BDC7BD5BC084B561
:101CB000806284BDC8BD56C08091800080688093DA
:101CC0008000D0938900C09388004CC08091800030
:101CD000806280938000D0938B00C0938A0042C0C2
:101CE0008091B00080688093B000C093B3003AC088
:101CF0008091B00080628093B000C093B40032C085
:101D000080919000806880939000D0939900C09358
:101D1000980028C080919000806280939000D093BA
:101D20009B00C0939A001EC08091A00080688093A1
:101D3000A0008091A0008F7B8093A000D093A90089
:101D4000C093A8000FC08091A00080628093A00083
:101D5000D093AB00C093AA0005C0C038D1050CF0E9
:101D600089CF83CFDF91CF911F9108953FB7F8942A
:101D70008091270590912805A0912905B0912A0509
:101D800026B5A89B05C02F3F19F00196A11DB11DD6
:101D90003FBFBA2FA92F982F8827820F911DA11D11
:101DA000B11DBC01CD0142E0660F771F881F991F4E
:101DB0004A95D1F708958F929F92AF92BF92CF929A
:101DC000DF92EF92FF926B017C010E94B60E4B01F5
:101DD0005C01C114D104E104F104F1F00E94B60EDB
:101DE000DC01CB0188199909AA09BB09883E9340F7
:101DF000A105B10570F321E0C21AD108E108F1088C
:101E000088EE880E83E0981EA11CB11CC114D10479
:101E1000E104F10419F7DDCFFF90EF90DF90CF9050
:101E2000BF90AF909F908F9008952FB7F8946091D6
:101E300023057091240580912505909126052FBFDB
:101E40000895CF93C82F0E94150FEBEAF6E0618F3B
:101E5000728F838F948FC78B6C2F8089CF910C9456
:101E6000C00D80E00E94210F61E08091BA060E94BF
:101E7000EF0D60E08091BA060E94C00DFFCF8F92F7
:101E80009F92AF92BF92CF92DF92EF92FF920F9309
:101E90001F93CF93DF93CDB7DEB7AD970FB6F8940E
:101EA000DEBF0FBECDBF6091B8067091B906072E98
:101EB000000C880B990B0E94F21F20E030E040EAF2
:101EC00050E40E94512020E030E040E85AE30E94B4
:101ED00051202BEA3AEA4AEA5EE30E9416226B019D
:101EE0007C0120E030E048EC52E40E9451200E9446
:101EF00088224B015C0120E030E0A901C701B60156
:101F00000E94EB1F811109C08DE293E00E94490CF1
:101F10008EED91E00E948B0D4FC01BA21AA21DA254
:101F20001CA21FA21EA28E010F5F1F4F22E044E0E1
:101F3000C701B6010E94B21C009771F0FC0101902C
:101F40000020E9F73197AF01481B590BBC01CE01C6
:101F500082960E945D0404C0CE0182960E940A040B
:101F60006DE571E0CE0188960E949804BE01685D1F
:101F70007F4FCE0101960E947E0468EE71E0CE0193
:101F800001960E941C04BE016E5D7F4F0E94C60B2D
:101F900067EF71E00E941C040E94400C0E943C0C00
:101FA000CE0101960E942E0BCE0188960E942E0B28
:101FB000CE0182960E942E0BC401AD960FB6F89406
:101FC000DEBF0FBECDBFDF91CF911F910F91FF906C
:101FD000EF90DF90CF90BF90AF909F908F9008953B
:101FE0001F920F920FB60F9211242F933F938F934E
:101FF0009F93AF93BF938091230590912405A09167
:102000002505B09126053091CC0623E0230F2D370E
:1020100020F40196A11DB11D05C026E8230F0296EC
:10202000A11DB11D2093CC06809323059093240518
:10203000A0932505B093260580912705909128054A
:10204000A0912905B0912A050196A11DB11D80938B
:10205000270590932805A0932905B0932A05BF91E1
:10206000AF919F918F913F912F910F900FBE0F9045
:102070001F901895CF92DF92EF92FF920F931F93CC
:10208000E82FF92F05C0015011092109310961F12B
:10209000908196239417B9F305C0015011092109C5
:1020A000310911F1908196239413F7CFC12CD12CD3
:1020B000E12CF12C0AC08FEFC81AD80AE80AF80AF6
:1020C0000C151D052E053F0579F0808186238417A8
:1020D00091F36C2D7D2D8E2D9F2D1F910F91FF90D3
:1020E000EF90DF90CF90089560E070E080E090E0A6
:1020F0001F910F91FF90EF90DF90CF900895CF93B5
:10210000DF93CDB7DEB76C970FB6F894DEBF0FBE86
:10211000CDBF789484B5826084BD84B5816084BD70
:1021200085B5826085BD85B5816085BD80916E0075
:10213000816080936E0010928100809181008260A6
:1021400080938100809181008160809381008091E3
:1021500080008160809380008091B10084608093D2
:10216000B1008091B00081608093B00080919100B7
:1021700082608093910080919100816080939100B2
:10218000809190008160809390008091A100826096
:102190008093A1008091A10081608093A100809133
:1021A000A00081608093A00080917A008460809379
:1021B0007A0080917A00826080937A0080917A0020
:1021C000816080937A0080917A00806880937A00A1
:1021D0001092C1000E94150F6115710581059105CE
:1021E00011F00E946B1D61E08091AB060E94EF0D23
:1021F00061E08091AC060E94EF0D61E08091AB063A
:102200000E94C00D60E08091AC060E94C00D60E0AD
:102210008091BA060E94EF0D61E08091BB060E949A
:10222000EF0D64E670E080E090E00E94DB0E88EC49
:1022300095E00E94330B8DE192E00E94490C8AEFF9
:1022400091E00E944F0D60E08FE00E94EF0D8BE265
:1022500095E00E94330B81E18093FA0180E1809345
:10226000FB0160E081E10E94EF0D60E080E10E94EF
:10227000EF0D8AE08093FC0189E08093FD0182E00C
:102280008093030283E08093040286E080930A0235
:1022900085E080930B020CEF11E061E0D8018C9196
:1022A0000E94EF0D61E0F80181810E94EF0D095F4E
:1022B0001F4FF2E001311F0781F761E08DE00E94BE
:1022C000EF0D61E08DE00E94C00D0E94130763E1F5
:1022D000E62E61E0F62E03E716E09924939472E06F
:1022E000872EE3E0CE2ED12CF3E07F2EAA24A394F8
:1022F000B12CD7016D907D011A8218861F86188A2D
:10230000198A1A8A9E869B861C868D869982DE8211
:10231000CD8283E090E00E94F8229A878987009717
:1023200041F0FC01272D11922A95E9F7BC82AB827E
:1023300004C01E821D821C821B826F828A818823B8
:1023400041F061E0862D0E94EF0D60E0862D0E9435
:10235000C00D862D90E0FC01EB51FD4FE491F0E0C3
:10236000EE0FFF1FE353FD4F259134913C8B2B8BD8
:10237000FC01E350FD4FE491ED8B85E1FE013196C8
:10238000D80101900D928A95E1F7CE0101960E9445
:102390005D05D80116968C9187FD08C061E00E940A
:1023A000EF0D60E0F80186810E94C00DD801119602
:1023B0009C92045E1F4FB6E00B3A1B0709F099CFC1
:1023C0000E942D0761E086E10E94EF0D709A60E0A7
:1023D00087E10E94EF0D1A8219821C821B821E82E5
:1023E0001D8268EF71E0CE0101960E943504CE0196
:1023F00001960E94ED0ACE0101960E942E0B19E073
:10240000E1E0F0E010935700649187E291E00E94D0
:102410007105E2E0F0E010935700649182E391E0EF
:102420000E947105E3E0F0E010935700649180E4AE
:1024300091E00E947105E0E0F0E010935700649194
:102440008FE491E00E9471056DE571E0CE01469642
:102450000E949804BE016A5E7F4FCE0101960E94E1
:102460007E0463E671E0CE0101960E941C040E9486
:10247000400CCE0101960E942E0BCE0146960E9482
:102480002E0B00E010E041E2F42E8EE291E00E947B
:102490002A0CF801F0925700649170E080E090E01F
:1024A00040E10E94F50C0E5F1F4F0630110569F7E1
:1024B0000E943C0C6DE571E0CE0146960E949804A6
:1024C000BE016A5E7F4FCE0101960E947E046FE6D8
:1024D00071E0CE0101960E941C040E94400CCE01C6
:1024E00001960E942E0BCE0146960E942E0B0EE006
:1024F00010E031E2F32E8EE291E00E942A0CF80106
:10250000F0925700649170E080E090E040E10E941A
:10251000F50C0F5F1F4F0831110569F70E943C0C45
:1025200080911905882309F4E2C58091180581116D
:10253000DEC580916C0290916D0225E0289FF0012C
:10254000299FF00D1124EF5DFD4F8081882309F450
:10255000A9C521812C8F822E912C36E1239FF00179
:102560001124EE57FD4F82859385A485B5858F3F55
:102570009F4FAF4FBF4F09F03FC0C0901A05D0909A
:102580001B05E0901C05F0901D05C114D104E10469
:10259000F104A9F00E94150F6C197D09CB01770F8A
:1025A000AA0BBB0BC80ED91EEA1EFB1EC0921A0551
:1025B000D0921B05E0921C05F0921D050AC00E94F6
:1025C000150F60931A0570931B0580931C0590935B
:1025D0001D0586E1889DF001899DF00D1124EE57BF
:1025E000FD4F8181873009F432C3813009F457C42B
:1025F0006C8D8EEC0E944B0686E1889DF001899DD2
:10260000F00D1124EE57FD4FE1818E2F90E0FC017B
:102610003197EB30F10508F045C5E65AFF4F0C94B1
:10262000D72226E1289DC001299D900D11248C01FF
:102630000E571D4FF80182859385A485B5858F3F80
:10264000FFEF9F07AF07BF0709F0C4C0D801199675
:102650008C9180FF10C00E941D1D2BE530E040E0F2
:1026600050E00E940F21DC01CB010A96A11DB11D93
:102670007C0100E009C0F8014781668185810E94E4
:10268000680AE62EF72E082F0E94150F26E1289DD6
:10269000F001299DF00D1124EE57FD4F62877387DD
:1026A000848795872381822F8E7121F180E090E0CD
:1026B00030E0AC014F5F5F4FB901042E02C0759549
:1026C00067950A94E2F760FD06C0CA0144305105DF
:1026D00081F750E039C00E94DB088823D1F39FEFD7
:1026E000980F933010F451E02FC08450843040F4A0
:1026F00052E02AC025FDF7CF26FDFACF27FF02C002
:1027000053E022C02481222321F380E090E030E0D6
:10271000A901082E02C0559547950A94E2F740FF9B
:102720000EC0880F991FFC01EF5EFD4F80819181E3
:1027300097FDCFCF843091051CF7582F05C0019627
:102740008830910529F7C5CF002389F086E1889D5F
:10275000F001899DF00D1124EE57FD4F6FEF7FEFD3
:10276000CB0166877787808B918B10E020C01E1489
:102770001F04DCF4D70171E5E71676E4F70614F0E0
:10278000A0E5B6E486E1889DF001899DF00D112455
:10279000EE57FD4F24E630E00E94DD226687778702
:1027A000808B918B1FECD12C04C050E01FECDD24FA
:1027B000D39421E02D2586E1889DF001899DF00DBF
:1027C0001124EE57FD4F82814C8D652F90E00E94C1
:1027D0005F0623C4F80146845784608871885301DA
:1027E0004201880E991EAA1EBB1E0E94150F681575
:1027F00079058A059B0508F455C4472046204520E5
:10280000409409F09CC64EC40E94150F26E1289DF5
:10281000F001299DF00D1124EE57FD4F628773875B
:10282000848795870581848193802280282F207E4C
:10283000822EC12CD12C312C382F3870732E482F7A
:102840004071642E402E512CA92CB12CE82EF12C75
:10285000C6010496B10102C0759567958A95E2F7A5
:1028600060FF80C68C2D0E94DB08772011F091E07C
:10287000811190E0662011F081113BC08820D9F0D1
:1028800091110BC420E030E0482F50E0B9016B5F9C
:102890007F4FD70102C0B595A7956A95E2F7A0FFD3
:1028A00004C02417350709F4F8C32F5F3F4F2330C6
:1028B000310561F74DC6992009F19111EEC320E071
:1028C00030E0482F50E0B501022E02C075956795A3
:1028D0000A94E2F760FF07C0B9016D5F7F4F64178C
:1028E000750709F4DAC32F5F3F4F2830310559F7D8
:1028F00078C78110D2C39110D0C391E0002301F1B9
:102900009111CBC3E1E1F2E020E030E090E0A201E0
:10291000022E02C0559547950A94E2F740FF1BC668
:10292000408151814B30510514F04AE050E057FF8F
:1029300002C040E050E04817590709F00CC6ADC38B
:10294000992309F40FC6A9C326E1289DC001299D3A
:10295000900D11248C010E571D4FF80142845384B1
:1029600064847584FFEF4F165F066F067F06B1F52E
:102970000E94150FD8011A966D937D938D939C93A9
:102980001D9714964C91149713966C911397129669
:102990008C910E94680A882331F0F8014686578698
:1029A000608A718A7FC3DB011A161B060CF075C39F
:1029B0006135764414F0A0E5B6E486E1889DF00127
:1029C000899DF00D1124EE57FD4F24E630E00E9462
:1029D000DD2266877787808B918B64C3D8011E9632
:1029E0008D909D90AD90BC905197480C591C6A1CDD
:1029F0007B1C0E94150F641575058605970508F464
:102A000051C3DD24D3948B208A208920809409F03F
:102A100003C3D12C01C326E1289DC001299D900D3F
:102A200011248C010E571D4FF80182859385A485D2
:102A3000B5858F3F9F4FAF4FBF4F89F40E94150F51
:102A4000D8011A966D937D938D939C931D976C8DF1
:102A500012968C910E94EB07F801828102C080914E
:102A6000080181111FC319C326E1289DC001299DBA
:102A7000900D11248C010E571D4FF8018289938906
:102A8000A489B589892B8A2B8B2B09F0D1C00E9490
:102A9000150FD8011A966D937D938D939C931D9776
:102AA00013966C9160FF0FC00E941D1D29E030E05D
:102AB00040E050E00E940F21DC01CB010196A11DF6
:102AC000B11DBC011CC0F801448182810E94680ACA
:102AD0008823A9F02FEF3FEFA901D8011E962D936F
:102AE0003D934D935C93519721E030E040E050E0FE
:102AF00052962D933D934D935C93559799C016161E
:102B000017060CF46FC060916C0270916D0285E045
:102B1000869FF001879FF00D1124EF5DFD4F8181AD
:102B2000E82EF12C87010F5F1F4F2091160530E032
:102B3000B6E18B9FF0011124EE57FD4F02171307EA
:102B400094F59789973059F5418D50E064177507D2
:102B500031F5908D891323C083E292E00E94490CE5
:102B6000B801CE0101960E948E0B6FE771E0CE0195
:102B700046960E949804BE016F5F7F4FCE01469635
:102B80000E94C60B0E94400C0E943C0CCE0146964F
:102B90000E942E0BCE0101960E942E0B06C00F5FE5
:102BA0001F4F7696CBCF0FEF1FEF26E1029FF0016C
:102BB0001124EE57FD4FE08120916C0230916D029F
:102BC00085E0829FD001839FB00D1124AF5DBD4F82
:102BD0001C928E9FF0011124EF5DFD4F018381E077
:102BE000808326C086E1889DF001899DF00D112427
:102BF000EE57FD4FCB016135764414F080E596E445
:102C0000092E000CAA0BBB0B86879787A08BB18B74
:102C100086E1889DF001899DF00D1124EE57FD4F4E
:102C200041E050E060E070E0428B538B648B758B29
:102C300080916C0290916D0225E0289FF001299F00
:102C4000F00D1124EF5DFD4F5C8D528326C20E9472
:102C5000150F26E1289DF001299DF00D1124EE5756
:102C6000FD4F6287738784879587228140916C022C
:102C700050916D02E1E2F2E081E090E030852317AF
:102C800019F03185231307C03581332321F08417D0
:102C9000950709F007C2019635968F30910571F7B7
:102CA000C0C10E94150F46E1489D9001499D300D1D
:102CB0001124F901EE57FD4F7F01628773878487E6
:102CC00095874185608587810E94680A3B01882E2F
:102CD0006B01F70106814581648183810E94680A46
:102CE0009B01482FCB01D7011296EC91611471041E
:102CF00011F40330E9F0023099F030F40130C1F4FE
:102D0000B901660D771D16C0033071F0043081F4EF
:102D1000269DB001279D700D369D700D11240AC0AF
:102D2000B9016619770906C0B6010E94C32202C024
:102D300060E070E0F0E0EE0FFF1FE15FFD4F718398
:102D40006083ABC126E1289DC001299D900D11240F
:102D5000FC01EE57FD4F3F01C284D384E484F58427
:102D6000FFEFCF16DF06EF06FF0609F07EC00E94D8
:102D7000150FD3011A966D937D938D939C931D9798
:102D800019968C91199780FF1AC013969C911397EE
:102D900014968C911497892B15969C91892B79F414
:102DA0000E941D1D23E330E040E050E00E940F210F
:102DB000DC01CB010A96A11DB11DDC0120C026E17A
:102DC000289DC001299D900D11248C010E571D4F87
:102DD000F8014581648183810E94680AA62FB72F7C
:102DE000882369F02FEF3FEFA901D8011E962D939C
:102DF0003D934D935C935197A12C10E020C01A167F
:102E00001B06D4F4A135E6E4BE0714F0A0E5B6E451
:102E100086E1889DF001899DF00D1124EE57FD4F4C
:102E200024E630E00E94DD2266877787808B918BD5
:102E3000A12C1FECD12C05C0AA24A3941FECDD24E7
:102E4000D39481E0CD2CC82686E1889DF001899D30
:102E5000F00D1124EE57FD4FEC8C01852085478144
:102E6000668182810E945509D8C0D3011E968D903B
:102E70009D90AD90BC905197C80CD91CEA1CFB1CCE
:102E80000E94150F6C157D058E059F0508F40AC17B
:102E90008B208A208920809409F0ACC303C1609004
:102EA0006C0270906D02FC8DE6E1FE9F60011124C2
:102EB000A12CB12C05E011E0069DC001079D900DED
:102EC00011249C012D5D3D4F7901F501EC0DFD1D97
:102ED000EE57FD4F82808820A9F0912CC4010E94FA
:102EE000EB068F3F3FEF930769F0089DF001099DC6
:102EF000F00D1124EF5DFD4F10838183D7018C917C
:102F000081118383BFEFAB1ABB0AE4E0AE16B104B4
:102F1000E1F6F1E06F1A710870926D0260926C0236
:102F200010E0BCC00E94150F26E1289DF001299DEC
:102F3000F00D1124EE57FD4F6287738784879587C4
:102F40005C8D46E1549F9001112480E090E045E0C3
:102F5000FC01E20FF31FEE57FD4FE281EE2341F03B
:102F60004E9FF0011124EF5DFD4F508151119AC029
:102F700001968330910561F790C00E94150F26E1FC
:102F8000289DF001299DF00D1124EE57FD4F628719
:102F90007387848795878581882331F00E94530742
:102FA0000E943206D12C02C0DD24D39486E1889D94
:102FB000F001899DF00D1124EE57FD4F8281882389
:102FC00031F020E040E060E090E00E945F0686E1A2
:102FD000889DF001899DF00D1124EE57FD4F8381EE
:102FE000982F907C51F0AA24A394C12CE12C00E0EE
:102FF00020E040E060E00E94550986E1889DF001F4
:10300000899DF00D1124EE57FD4F8481882321F016
:1030100060E080E00E94EB071FECDD2009F442C075
:103020003DC06C8D8EEC0E944B0686E1889DF001C0
:10303000899DF00D1124EE57FD4F0281202F30E0C5
:10304000829FF001839FF00D1124EE57FD4F82897E
:103050009389A489B589C684D784E088F188409192
:103060006C0250916D028C159D05AE05BF0509F0EF
:1030700082C28F3F6FEF9607A607B60709F47BC29F
:10308000128A138A148A158A85E0849FF001859F2D
:10309000F00D1124EF5DFD4F12821FEC612F8C8D1E
:1030A0000E94730780916C0290916D0201966FE00F
:1030B00070E00E94C32290936D0280936C02C090D6
:1030C0000001D0900101E0900201F090030164E161
:1030D000C60ED11CE11CF11C0E94150FC616D706A6
:1030E000E806F90620F480910801811199C2C09088
:1030F0007D02D0907E02E0907F02F0908002C114A9
:10310000D104E104F10491F00E94150FA8EECA0E5B
:10311000A3E0DA1EE11CF11CC616D706E806F90684
:1031200028F480912105882309F484C28FE00E944D
:10313000970D892B69F08BE295E00E942602892B7E
:1031400009F448C000917C0210E08BE295E00BC0CE
:1031500088EC95E00E942602892BE1F100917C0227
:1031600010E088EC95E00E940402F801E259FD4F5E
:1031700080830E94150F6093C8067093C9068093E0
:10318000CA069093CB0687E492E00E94490C81E442
:1031900092E00E94490CE0917C02F0E0E259FD4F80
:1031A0006AE070E080810E94360D10917C0211115E
:1031B00004C080916E028134A1F00E94150F6093CB
:1031C0007D0270937E0280937F02909380021F5F46
:1031D00010937C0280917C028E3019F481E0809300
:1031E000210580912105882309F447C08091690653
:1031F00090916A0690937206809371060EE612E033
:103200008AE7E82E82E0F82EF80181918F010E9472
:10321000640CE016F106C1F70E94B80C20917A0206
:1032200030917B022817390709F40FC28BE392E033
:103230000E94490C8EE991E00E948B0D81EF11C034
:10324000883608F420C28E3609F0A9C289E292E0DD
:103250000E94490C8CEC91E00E948B0D0E94530758
:1032600082ED80931E0510921F058EE195E00E946D
:1032700097050E948505109221058091C306882339
:10328000D9F0C090C406D090C506E090C606F09074
:10329000C70634EFC30E31E0D31EE11CF11C0E94BF
:1032A000150F6C157D058E059F0530F09091C206B7
:1032B00081E089270E94210F8091BA060E94970D14
:1032C00011E0009709F410E0892B09F457C0009130
:1032D00019058091BD06011104C09091170599232D
:1032E00089F0181779F00E94150F6093C806709343
:1032F000C9068093CA069093CB060E9432060E94AC
:1033000053073CC0181709F445C00E94150F60937D
:10331000C8067093C9068093CA069093CB06011124
:103320002DC080912205882349F1809118058111D3
:1033300025C080911705811121C02091160530E02C
:10334000E2E8F2E080E090E08217930794F44FEF18
:103350005FEFBA01428753876487758716861786A1
:10336000108A118A128A138A148A158A019676960F
:10337000EBCF81E0809381020E94A1081093BD06EB
:103380000E94150F6093BE067093BF068093C0061F
:103390009093C106C090C806D090C906E090CA06B6
:1033A000F090CB0650ECC50E57E2D51E59E0E51E55
:1033B000F11C0E94150FC616D706E806F90670F430
:1033C0000E943F0F459754F08CE792E00E94490C11
:1033D0008CE692E00E944F0D0E94310F8091B20660
:1033E000882359F1C090B306D090B406E090B5069A
:1033F000F090B6066EE5C60E61E0D61EE11CF11C2B
:103400000E94150FC616D706E806F906B0F490918B
:10341000B70681E089278093B7060E94150F609355
:10342000B3067093B4068093B5069093B606609188
:10343000B7068091AC060E94C00D0E94150F2AE0CD
:1034400030E040E050E00E947821672B682B692B28
:1034500009F040C06091B8067091B906072E000CC3
:10346000880B990B0E94F21F26E636E646E65FE3DC
:103470000E9451206B017C018091AD068E3008F0D6
:103480008E508770806480937C0080917A00806485
:1034900080937A0080917A0086FDFCCF609178005D
:1034A0008091790070E0782B072E000C880B990B27
:1034B0000E94F21F2DEC3CEC4CEC5DE30E9451208D
:1034C000A70196010E94AA210E9488227093B90642
:1034D0006093B806C090AE06D090AF06E090B006FC
:1034E000F090B10670EDC70E77E0D71EE11CF11C1D
:1034F0000E94150FC616D706E806F90608F453C150
:103500001AC08F3E92400CF05FC161E08091AC0622
:103510000E94C00D60E08091AB060E94C00D109229
:10352000B2060E94150F6093AE067093AF068093AB
:10353000B0069093B1060E94D7020C949012F80145
:10354000828120E04C8D60E090E00E945F06A5CD76
:103550009110B5C946C12F5F3F4F329628303105D3
:1035600009F0D5C9FFEFCF1ADF0A24E0C216D10453
:1035700009F06EC997CD16E1129FB001139F700D2F
:1035800011246E577D4F0196A11DB11DFB01828B49
:10359000938BA48BB58B85E0849FD001859FB00D64
:1035A0001124AF5DBD4F11961C9211971C92189D6E
:1035B0009001199D300D1124A9014E575D4F7A01DC
:1035C000DA011396EC918E9FF0011124EF5DFD4F0F
:1035D000018381E080836C8D8FEC0E944B062FEF7E
:1035E0003FEFA901D7011A962D933D934D935C931C
:1035F0001D9758CDAA24A394C12CEC8CD301199605
:103600000C91199718962C91189717964C9117971B
:1036100016966C91169712968C910E9455093DCD85
:1036200087E10E94970D21E0892B09F420E0209387
:1036300008015DCD86E692E00E94490C8EE492E09E
:103640000E944F0D0E94850571CD80916E028736D4
:1036500009F0F6CD8FE292E00E94490C81EC91E0F6
:103660000E948B0D8BEC80931E0510921F058EE13E
:1036700095E00E94970581E08093220510928102D7
:103680000E94A108F6CD8436C9F585E392E00E9438
:10369000490C86EB91E00E948B0DE2E8F2E010828B
:1036A000118280E090E0DF01A80FB91F12961C92F2
:1036B000019688309105B9F72FEF3FEFA9012287D6
:1036C00033874487558716861786108A118A128A8F
:1036D000138A148A158A769635E0E631F307F9F6EF
:1036E0001092200510927C0280916F028093160543
:1036F00098EC90931E0580931F05B7CD853609F091
:10370000B8CD80916F0290912005891397CD482FF5
:1037100050E066E1869FF0011124EE57FD4F909135
:1037200070029083909171029183A2E7B2E096E1DA
:10373000899FB001112424E030E09D91F901E60F4A
:10374000F71FE058FD4F90832F5F3F4F2C3031051E
:10375000A1F796E1949FF001959FF00D1124EE578B
:10376000FD4F2FEF3FEFA90122873387448755870D
:1037700016861786108A118A128A138A148A158A65
:1037800099EC90931E0580931F058EE195E00E94B1
:103790009705809120058F5F809320056ACD8D3835
:1037A00009F463CD66CD0E943F0F8B38B2E09B07D2
:1037B0000CF0A7CE81E08093B20661E08091AC0668
:1037C0000E94C00D60E008C01092B20660E08091D7
:1037D000AC060E94C00D61E08091AB060E94C00D56
:1037E000A0CE01118FC8BECE8FE896E00E945D0585
:1037F00083E796E00C945D05EBE2F5E0138212821C
:1038000048EE53E060E070E044835583668377833D
:1038100089E191E0918380832DEC30E03587248726
:103820002CEC30E03787268728EC30E0318B208B7A
:1038300029EC30E0338B228B2AEC30E0358B248B63
:103840002EEC30E0378B268B118E128E138E148E59
:10385000E8ECF5E013821282448355836683778314
:103860009183808385EC90E09587848784EC90E059
:103870009787868780EC90E0918B808B81EC90E03D
:10388000938B828B82EC90E0958B848B86EC90E01E
:10389000978B868B118E128E138E148E0E94150FAD
:1038A0006093C8067093C9068093CA069093CB06AE
:1038B000EBEAF6E0138214821582168217821086D4
:1038C00011861286138614861686158688E08083F4
:1038D00085E1818384E182838EE0878784E0808B29
:1038E00081E0828B818B178A108EE3E7F6E080837C
:1038F000118213821282158214822FEF268317827F
:10390000118610868287138692E0948785871686B3
:103910001786108A118A848F158E178E168E11A223
:1039200010A222A313A215A214A286A317A290A7E5
:1039300081A712A613A614A615A6E5E6F6E0128640
:10394000138681E290E19187808715821482178225
:10395000168280E090E8918380838FEF9FEF9383BE
:1039600082830895EF920F931F93CF93DF93E80123
:1039700047FD02C034E001C034E1042E000C550BB9
:1039800057FF03C0519541955109E32E022F242F73
:10399000AE010E94A91DCE01DF91CF911F910F9121
:1039A000EF9008958F929F92AF92BF92CF92DF9245
:1039B000EF92FF92CF93DF93EC01688179818A8146
:1039C0009B81611571058105910521F464E279ED12
:1039D0008BE597E02DE133EF41E050E00E940F21AD
:1039E00049015A019B01AC01A7EAB1E40E942E21D2
:1039F0006B017C01ACEEB4EFA50194010E943C2167
:103A0000DC01CB018C0D9D1DAE1DBF1DB7FF03C09A
:103A10000197A109B04888839983AA83BB83BC011D
:103A2000CD019F77DF91CF91FF90EF90DF90CF9006
:103A3000BF90AF909F908F9008958F929F92AF927A
:103A4000BF92CF92DF92EF92FF9260910901709145
:103A50000A0180910B0190910C016115710581059E
:103A6000910521F464E279ED8BE597E02DE133EFE8
:103A700041E050E00E940F2149015A019B01AC0135
:103A8000A7EAB1E40E942E216B017C01ACEEB4EFF9
:103A9000A50194010E943C21DC01CB018C0D9D1DF0
:103AA000AE1DBF1DB7FF03C00197A109B0488093A9
:103AB000090190930A01A0930B01B0930C01BC0182
:103AC000CD019F77FF90EF90DF90CF90BF90AF90A8
:103AD0009F908F9008956093090170930A018093DD
:103AE0000B0190930C010895FB01DC0105900D92F0
:103AF0000020E1F70895FC0105900020E9F780958A
:103B000090958E0F9F1F0895BB274A3031F499235B
:103B100022F4BDE2909581959F4F0C94901DBB2798
:103B2000FB015527AA27880F991FAA1FA41710F079
:103B3000A41B83955051B9F7A05DAA3308F0A95D85
:103B4000A193009779F7B111B1931192CB010C9425
:103B5000DB1FA9E0B0E0EFEAFDE10C9447216A0128
:103B6000122FB02E2BE3201720F0FF24F394F00E39
:103B700002C02CE3F22E0F2D27E0AE014F5F5F4F06
:103B80000E94031FBC014981842F8970813031F06C
:103B9000E1FC06C0E0FE06C090E205C09DE203C065
:103BA0009BE201C090E05E2D507143FF3CC091113B
:103BB00002C083E001C084E0811718F4212F281B84
:103BC00001C020E051110BC0F601822F30E28823A2
:103BD00019F031938150FBCFC20ED11C20E0992304
:103BE00029F0D6019C93F60131966F01C601039628
:103BF000E2FE0AC03EE4D6013C9341E411964C93A8
:103C0000119712963C9306C03EE6F601308341E6DA
:103C100041833283FC01322F40E2332309F442C056
:103C200041933150FACF42FF44C0911102C083E06A
:103C300001C084E0811718F4212F281B01C020E067
:103C400051110BC0F601822F30E2882319F0319315
:103C50008150FBCFC20ED11C20E0992329F0D60160
:103C60009C93F60131966F01C6010396E2FE0BC0EC
:103C700039E4D6013C933EE411963C93119736E427
:103C800012963C9307C039E6F60130833EE6318355
:103C900036E63283FC01322F40E2332319F04193A0
:103CA0003150FBCFFC01E20FF11D10828EEF9FEF30
:103CB000A6C021E030E0911102C020E030E01616ED
:103CC00017061CF4FB01319602C0E1E0F0E02E0F74
:103CD0003F1FBB2021F0EB2DF0E0319602C0E0E069
:103CE000F0E02E0F3F1FE12FF0E02E173F071CF4EE
:103CF000121B212F01C020E08E2D887159F4F6018E
:103D0000822F30E2882319F031938150FBCFC20E0D
:103D1000D11C20E0992329F0D6019C93F60131961D
:103D20006F0151110BC0F601822F90E3882319F027
:103D300091938150FBCFC20ED11C20E00F2D060FB6
:103D40009A81342F307144FF03C0913309F401503C
:103D5000101624F4093018F008E001C001E0AB01AE
:103D600077FF02C040E050E0FB01E41BF50BA1E04F
:103D7000B0E0AC0FBD1FEA0FFB1F8EE2A82E4B0177
:103D8000801A91080B2D10E01195019511094F3FF4
:103D9000BFEF5B0721F4D601AC9211966D01641759
:103DA00075072CF08416950614F4818101C080E318
:103DB000415051093196D60111967D0140175107A6
:103DC00024F0D6018C936701E2CF6417750739F4AC
:103DD000963320F4953319F4311101C081E3F601D3
:103DE0008083F701822F90E2882319F0919381500C
:103DF000FBCFF701E20FF11D108280E090E02996E1
:103E0000ECE00C946321283008F027E03327DA0136
:103E1000990F311D87FD916000966105710539F498
:103E200032602E5F3D9330E32A95E1F708959F3F7E
:103E300030F080387105610509F03C5F3C5F3D93CF
:103E4000913008F08068911DDF93CF931F930F93FB
:103E5000FF92EF92192F987F9695E92F9695969558
:103E6000E90FFF27E85AFE4F99273327EE24FF2456
:103E7000A701E70105900894079428F4360FE71E80
:103E8000F81E491F511D660F771F881F991F069442
:103E9000A1F70590079428F4E70EF81E491F561F56
:103EA000C11D770F881F991F661F0694A1F7059003
:103EB000079428F4F80E491F561FC71FD11D880FFD
:103EC000991F661F771F0694A1F70590079420F4A9
:103ED000490F561FC71FD81F990F661F771F881FCE
:103EE0000694A9F784911095177041F0D695C7955F
:103EF00057954795F794E7941A95C1F7EEEFF0E0E0
:103F000068941590159135916591959105907FE292
:103F10007395E118F10A430B560BC90BD009C0F792
:103F2000E10CF11E431F561FC91FD01D7EF47033D4
:103F300011F48A95E6CFE894015030F0080F0AF4A6
:103F40000027021708F4202F2395022F7A3328F038
:103F500079E37D932A95E9F710C07D932A9589F638
:103F6000069497956795379517951794E118F10A78
:103F7000430B560BC90BD00998F023957E9173958E
:103F80007A3308F070E37C932013B8F77E91706168
:103F90007D9330F0839571E37D9370E32A95E1F78B
:103FA0001124EF90FF900F911F91CF91DF919927EE
:103FB00087FD90950895DC01FC01672F71917723AF
:103FC000E1F7329704C07C916D9370836291AE17D4
:103FD000BF07C8F308950E942D2008F481E00895DA
:103FE000E89409C097FB3EF4909580957095619593
:103FF0007F4F8F4F9F4F9923A9F0F92F96E9BB2749
:104000009395F695879577956795B795F111F8CFC4
:10401000FAF4BB0F11F460FF1BC06F5F7F4F8F4F2F
:104020009F4F16C0882311F096E911C0772321F025
:104030009EE8872F762F05C0662371F096E8862FBD
:1040400070E060E02AF09A95660F771F881FDAF714
:10405000880F9695879597F90895990F0008550F41
:10406000AA0BE0E8FEEF16161706E807F907C0F0FE
:1040700012161306E407F50798F0621B730B840B06
:10408000950B39F40A2661F0232B242B252B21F4E0
:1040900008950A2609F4A140A6958FEF811D811D80
:1040A00008950E9464200C94D5200E94C72038F007
:1040B0000E94CE2020F0952311F00C94BE200C9489
:1040C000C42011240C9409210E94E62070F3959FCE
:1040D000C1F3950F50E0551F629FF001729FBB27FF
:1040E000F00DB11D639FAA27F00DB11DAA1F649F9B
:1040F0006627B00DA11D661F829F2227B00DA11D4E
:10410000621F739FB00DA11D621F839FA00D611DD3
:10411000221F749F3327A00D611D231F849F600DF4
:10412000211D822F762F6A2F11249F5750409AF01D
:10413000F1F088234AF0EE0FFF1FBB1F661F771FA9
:10414000881F91505040A9F79E3F510580F00C9474
:10415000BE200C9409215F3FE4F3983ED4F386958A
:1041600077956795B795F795E7959F5FC1F7FE2B14
:10417000880F911D9695879597F9089597F99F67F0
:1041800080E870E060E008959FEF80EC08950024DF
:104190000A941616170618060906089500240A94AC
:1041A00012161306140605060895092E0394000C32
:1041B00011F4882352F0BB0F40F4BF2B11F460FFC1
:1041C00004C06F5F7F4F8F4F9F4F089557FD9058EA
:1041D000440F551F59F05F3F71F04795880F97FBCB
:1041E000991F61F09F3F79F0879508951216130685
:1041F0001406551FF2CF4695F1DF08C016161706B4
:104200001806991FF1CF86957105610508940895E8
:10421000E894BB2766277727CB0197F90895052EE9
:1042200097FB1EF400940E94262157FD07D00E94A0
:10423000782107FC03D04EF40C942621509540952C
:10424000309521953F4F4F4F5F4F08959095809542
:10425000709561957F4F8F4F9F4F08950E949A21CF
:10426000A59F900DB49F900DA49F800D911D1124CA
:104270000895B7FF0C942E210E942E21821B930BD0
:1042800008952F923F924F925F926F927F928F92FA
:104290009F92AF92BF92CF92DF92EF92FF920F93D5
:1042A0001F93CF93DF93CDB7DEB7CA1BDB0B0FB6DF
:1042B000F894DEBF0FBECDBF09942A88398848889C
:1042C0005F846E847D848C849B84AA84B984C88432
:1042D000DF80EE80FD800C811B81AA81B981CE0F29
:1042E000D11D0FB6F894DEBF0FBECDBFED0108950E
:1042F000A1E21A2EAA1BBB1BFD010DC0AA1FBB1FEA
:10430000EE1FFF1FA217B307E407F50720F0A21B5B
:10431000B30BE40BF50B661F771F881F991F1A94C8
:1043200069F760957095809590959B01AC01BD01F2
:10433000CF010895A29FB001B39FC001A39F700D4C
:10434000811D1124911DB29F700D811D1124911D9D
:1043500008955058BB27AA270E94C1210C94D5204C
:104360000E94C72038F00E94CE2020F039F49F3FF1
:1043700019F426F40C94C4200EF4E095E7FB0C9499
:10438000BE20E92F0E94E62058F3BA176207730790
:104390008407950720F079F4A6F50C9408210EF413
:1043A000E0950B2EBA2FA02D0B01B90190010C0145
:1043B000CA01A0011124FF27591B99F0593F50F45D
:1043C000503E68F11A16F040A22F232F342F4427B5
:1043D000585FF3CF469537952795A795F0405395AD
:1043E000C9F77EF41F16BA0B620B730B840BBAF07D
:1043F0009150A1F0FF0FBB1F661F771F881FC2F7E8
:104400000EC0BA0F621F731F841F48F487957795FB
:104410006795B795F7959E3F08F0B0CF9395880FB5
:1044200008F09927EE0F9795879508950E942A2204
:104430000C94D5200E94CE2058F00E94C72040F056
:1044400029F45F3F29F00C94BE2051110C940921EE
:104450000C94C4200E94E62068F39923B1F35523FD
:1044600091F3951B550BBB27AA2762177307840787
:1044700038F09F5F5F4F220F331F441FAA1FA9F31D
:1044800035D00E2E3AF0E0E832D091505040E6950B
:10449000001CCAF72BD0FE2F29D0660F771F881F6C
:1044A000BB1F261737074807AB07B0E809F0BB0B5F
:1044B000802DBF01FF2793585F4F3AF09E3F510573
:1044C00078F00C94BE200C9409215F3FE4F3983EF1
:1044D000D4F3869577956795B795F7959F5FC9F75C
:1044E000880F911D9695879597F90895E1E0660FDD
:1044F000771F881FBB1F621773078407BA0720F056
:10450000621B730B840BBA0BEE1F88F7E0950895BE
:104510000E948F226894B1110C94092108950E9481
:10452000EE2088F09F5798F0B92F9927B751B0F037
:10453000E1F0660F771F881F991F1AF0BA95C9F727
:1045400014C0B13091F00E940821B1E008950C949C
:104550000821672F782F8827B85F39F0B93FCCF34F
:10456000869577956795B395D9F73EF490958095A4
:10457000709561957F4F8F4F9F4F08950E942D201A
:1045800008F48FEF089597FB072E16F4009407D0D8
:1045900077FD09D00E94E42207FC05D03EF49095F7
:1045A00081959F4F0895709561957F4F0895EE0F07
:1045B000FF1F0590F491E02D09940E949A21B7FF06
:1045C0000895821B930B0895AA1BBB1B51E107C0E2
:1045D000AA1FBB1FA617B70710F0A61BB70B881F93
:1045E000991F5A95A9F780959095BC01CD01089522
:1045F0000F931F93CF93DF938230910510F482E0E5
:1046000090E0E091CF06F091D00620E030E0A0E00D
:10461000B0E0309719F14081518102811381481730
:104620005907C8F08417950769F4109731F012966E
:104630000C93129713961C9327C00093CF061093E8
:10464000D00622C02115310519F04217530718F47E
:104650009A01BD01EF01DF01F801DBCF2115310522
:10466000F9F0281B390B2430310580F48A819B81B5
:104670006115710521F0FB019383828304C090933F
:10468000D0068093CF06FE01329644C0FE01E20FB1
:10469000F31F8193919322503109398328833AC0C3
:1046A0002091CD063091CE06232B41F420910F01AD
:1046B000309110013093CE062093CD0620910D014C
:1046C00030910E012115310541F42DB73EB74091CF
:1046D000110150911201241B350BE091CD06F09190
:1046E000CE06E217F307A0F42E1B3F0B281739075D
:1046F00078F0AC014E5F5F4F2417350748F04E0F3E
:104700005F1F5093CE064093CD068193919302C0D4
:10471000E0E0F0E0CF01DF91CF911F910F9108957C
:10472000CF93DF93009709F481C0FC013297138285
:104730001282A091CF06B091D006109781F420810B
:104740003181820F931F2091CD063091CE0628171C
:10475000390751F5F093CE06E093CD0667C0ED0121
:1047600020E030E0CE17DF0740F44A815B819E01F4
:1047700041155105F1F0EA01F5CFD383C2834081A1
:104780005181840F951FC817D90759F488819981E1
:10479000840F951F0296918380838A819B819383E6
:1047A00082832115310529F4F093D006E093CF06DA
:1047B0003DC0E901FB83EA8349915991C40FD51F9C
:1047C000EC17FD0761F480819181840F951F02969B
:1047D000E90199838883828193819B838A83E0E0C6
:1047E000F0E012968D919C911397009719F0FD01BE
:1047F000DC01F7CF8D919C9111979D012E5F3F4F6A
:10480000820F931F2091CD063091CE0628173907CD
:1048100069F4309729F41092D0061092CF0602C0A6
:1048200013821282B093CE06A093CD06DF91CF9172
:104830000895A0E0B0E0EFE1F4E20C944521EC0132
:10484000009721F4CB010E94F822B4C0FC01E60FCE
:10485000F71F9C0122503109E217F30708F4A8C0A2
:10486000D9010D911C91119706171707B0F005306B
:10487000110508F49BC0C80104978617970708F430
:1048800095C002501109061B170B019311936D93EC
:104890007C93CF010E94902389C05B01A01AB10ACA
:1048A0004C01800E911EA091CF06B091D006612CD4
:1048B000712CE12CF12C109709F446C08D919C913C
:1048C0001197A815B905B1F56C0142E0C40ED11CD1
:1048D000CA14DB0478F14C018A189B08640142E099
:1048E000C40ED11C1296BC9012971396AC91B5E0F1
:1048F000CB16D10440F0B282A38391828082D90189
:104900006D937C9309C00E5F1F4F800F911FF901BB
:1049100091838083EB2DFA2FE114F10431F0D7015C
:104920001396FC93EE93129741C0F093D006E09358
:10493000CF063CC06816790608F43C017D0112964A
:104940000D90BC91A02DB7CF8091CD069091CE0651
:1049500088169906E1F466167706C8F480910D0171
:1049600090910E01009741F48DB79EB740911101CF
:1049700050911201841B950BE817F907C8F4F093C6
:10498000CE06E093CD06F901718360830FC0CB01A1
:104990000E94F8227C01009759F0A801BE010E94F4
:1049A000E424CE010E949023C70104C0CE0102C0BE
:1049B00080E090E0CDB7DEB7EEE00C94612181E0BD
:1049C00090E0F8940C94F424FB01DC0102C0019007
:1049D0000D9241505040D8F70895FB01DC01019041
:1049E0000D920020E1F7089511E0CCE9D1E004C078
:1049F000FE010E94D7222196CD39D107C9F7F8943C
:024A0000FFCFE6
:104A0200FFFFFFFF1027000000010000000000D19F
:104A12000680001312000000006802C801F501B50B
:104A2200022602040218026C6F636B62203D203082
:104A320078006578742066757365203D20307800B3
:104A4200686967682066757365203D203078006C60
:104A52006F772066757365203D203078005B525376
:104A6200535D005369676E61747572653A20005335
:104A7200657269616C204E756D6265723A200046FE
:104A82006F756E64206D61746368696E6720454E50
:104A920044204F46204C4F4F50202D2D20004441A2
:104AA2005441205245434549564544204E4F5420D7
:104AB20056414C494400537461727420504C415920
:104AC20000456E64207363726970740053746F7072
:104AD20020507265737365640070000D0A005553AF
:104AE2004220504F574552006261747465727920BA
:0A4AF20076616C7565200056000027
:107E00001F92CDB7DEB7112484B714BE982F9D7092
:107E100009F0E6D082E08093C00088E18093C10041
:107E200086E08093C20080E18093C4008EE0C3D0DE
:107E300010928500109284004899FECF489BFECF97
:107E400081E0809381004899FECF109281002091BB
:107E50008400822F20918500922F089644E0969509
:107E600087954A95E1F701978093C40098D08033B5
:107E7000E9F7A7D0812C912C13E001E025E0F22E48
:107E800031E1E32E8CD0813479F489D0898399D083
:107E90008981823811F482E005C0813811F486E0CE
:107EA00001C083E075D071C0823411F484E103C055
:107EB000853419F485E08DD068C0853549F46FD0DC
:107EC000D82E6DD08D2C912C982A880C991C5CC0D2
:107ED000863521F484E07DD080E0E4CF843609F05B
:107EE00036C05DD05CD0D82E5AD0C82EA12CBB2471
:107EF000B39455D0F50181935F01DE12FACF61D0C2
:107F0000F5E4CF1201C0FFCFF40117BFE89507B623
:107F100000FCFDCFA401A0E0B1E02C911296CD01B0
:107F20000197FC01808130E0382BFA01090107BF7D
:107F3000E89511244E5F5F4FDA12EFCFF401F7BEE0
:107F4000E89507B600FCFDCFE7BEE8951EC0843774
:107F500071F425D024D0D82E22D033D05401F5018D
:107F600085915F0115D0DA94D110F9CF0EC0853715
:107F700039F427D08EE10CD085E90AD086E192CF82
:107F8000813511F488E017D01CD080E101D07ACF80
:107F90009091C00095FFFCCF8093C600089580911A
:107FA000C00087FFFCCF8091C00084FD01C0A89570
:107FB0008091C6000895E0E6F0E098E19083808328
:107FC0000895EDDF803219F088E0F5DFFFCF84E11E
:107FD000DFCFCF93C82FE3DFC150E9F7CF91F1CFC7
:0C7FE000282E80E0E8DFE0E0FF27099495
:0400000300007E007B
:00000001FF
